:020000040800F2
:100000005004002025030008652000086720000830
:100010006B2000086F20000873200008000000001B
:100020000000000000000000000000007720000831
:1000300079200008000000007B2000087D200008D7
:100040003F0300083F0300083F0300083F03000888
:100050003F0300083F0300083F0300083F03000878
:100060003F0300083F0300083F0300083F03000868
:100070003F0300083F0300083F0300083F03000858
:100080003F0300083F0300083F0300083F03000848
:100090003F0300083F0300083F0300083F03000838
:1000A0003F0300083F0300083F0300083F03000828
:1000B0003F0300083F0300083F0300083F03000818
:1000C0003F0300083F0300083F0300083F03000808
:1000D0003F0300083F0300083F0300083F030008F8
:1000E0003F0300083F0300083F0300083F030008E8
:1000F0003F0300083F0300083F0300083F030008D8
:100100003F0300083F0300083F0300083F030008C7
:100110003F0300083F0300083F0300083F030008B7
:100120003F0300083F0300083F0300083F030008A7
:10013000DFF80CD003F046FD0048004755200008CA
:10014000500400200CB50020019000906C4800681D
:1001500040F480306A49086000BF6948006800F4D4
:10016000003000900198401C0190009818B9019847
:10017000B0F5A06FF1D16248006800F4003010B112
:100180000120009001E0002000900098012843D158
:100190005C48006840F010005A4908600846006852
:1001A00020F0030008600846006840F00200086084
:1001B00053484068524948600846406848600846CD
:1001C000406840F4806048600846406820F47C1035
:1001D00048600846406840F4E810486008460068F7
:1001E00040F08070086000BF4548006800F0007073
:1001F0000028F9D04248406820F003004049486098
:100200000846406840F00200486000BF3C48406833
:1002100000F00C000828F9D10CBD10B5FFF792FFD3
:1002200010BD10B53648006840F001003449086040
:10023000084640683449084031494860084600682B
:10024000324908402E4908600846006820F48020A2
:1002500008600846406820F4FE0048604FF41F0024
:100260008860FFF7DAFF4FF000602949086010BD91
:1002700010B5002100200022214B5B6803F00C0127
:1002800021B1042906D0082928D107E0214B224CAE
:10029000236027E01F4B204C236023E0184B5B6852
:1002A00003F47010164B5B6803F48032022303EBF7
:1002B000904022B9194B4343174C23600DE0104B7B
:1002C0005B6803F4003323B1144B4343124C2360A7
:1002D00003E0104B4343104C236003E00D4B0E4CE6
:1002E000236000BF00BF064B5B68C3F303130C4CD5
:1002F000E15C094B1B68CB40074C236010BD00003C
:1003000000100240002002400000FFF8FFFFF6FE50
:1003100008ED00E000127A000000002000093D0016
:10032000040000200648804706480047FEE7FEE735
:10033000FEE7FEE7FEE7FEE7FEE7FEE7FEE7FEE795
:10034000230200083101000831490143314A11609C
:10035000704770B5002100230F22C47804B32D4CE0
:10036000246804F4E064C4F5E064210AC1F10403E4
:10037000CA40447804FA03F1847814402143090107
:10038000254C0678A155047804F01F050124AC40E3
:1003900005786D11AD0005F1E025C5F8004109E0D3
:1003A000047804F01F050124AC401C4D067876113A
:1003B00045F8264070BD1A4A0A400243154B1B1FE0
:1003C0001A60704739B1134A121D12680243114B6B
:1003D0001B1D1A6006E00F4A121D126882430D4B66
:1003E0001B1D1A607047042808D14FF0E0210969ED
:1003F00041F004014FF0E022116107E04FF0E021ED
:10040000096921F004014FF0E022116170470000FA
:100410000000FA050CED00E000E400E080E100E0FF
:1004200080FFFF1F10B50446CC48844208D101214B
:10043000042000F02DFB0021042000F029FB46E001
:10044000C748844208D10121082000F021FB002187
:10045000082000F01DFB3AE0C248844208D1012187
:10046000102000F015FB0021102000F011FB2EE001
:10047000BD48844208D10121202000F009FB002161
:10048000202000F005FB22E0B848844208D1012179
:10049000402000F0FDFA0021402000F0F9FA16E0BB
:1004A000B348844208D10121802000F0F1FA0021F4
:1004B000802000F0EDFA0AE0AE48844207D1012125
:1004C000801500F0E5FA0021A01500F0E1FA10BD5A
:1004D00010B50121084600F0DBFA0021012000F0F0
:1004E000D7FA10BD2DE9F041024600250026002074
:1004F00000230024002791F803C00CF00F0591F8A9
:1005000003C00CF0100CBCF1000F03D091F802C036
:100510004CEA050591F800C0BCF1000F31D0146819
:1005200000202BE04FF0010C0CFA00F3B1F800C0F2
:100530000CEA03069E4220D183004FF00F0C0CFA08
:1005400003F7BC4305FA03FC4CEA040491F803C02A
:10055000BCF1280F06D14FF0010C0CFA00FCC2F8D8
:1005600014C00AE091F803C0BCF1480F05D14FF068
:10057000010C0CFA00FCC2F810C0401C0828D1D3B2
:100580001460B1F800C0BCF1FF0F34DD54680020E6
:100590002EE000F1080C4FF0010808FA0CF3B1F856
:1005A00000C00CEA03069E4221D183004FF00F0CDD
:1005B0000CFA03F7BC4305FA03FC4CEA040491F877
:1005C00003C0BCF1280F05D100F1080C08FA0CF8A3
:1005D000C2F8148091F803C0BCF1480F07D100F1B4
:1005E000080C4FF0010808FA0CF8C2F81080401C03
:1005F0000828CED35460BDE8F0814FF6FF7101802A
:10060000022181700421C170704702460020936866
:100610000B400BB1012000E00020704701468868C4
:1006200080B2704702460020D3680B400BB1012016
:1006300000E0002070470146C86880B27047016141
:100640007047416170470AB1016100E04161704744
:10065000C16070474FF480320A43826181618261D8
:1006600082698269704702460020434B18684FF642
:100670008073184040EA021008433F4B18607047EF
:100680003E49C8617047F0B50A46002300240021A6
:10069000002500F00046B6F1004F02D1364EF16958
:1006A00001E0354E7168C0F3034583B200F4401693
:1006B000B6F5401F08D121F070612F4E766826F004
:1006C00070662D4F7E6012E000F48016B6F5801F34
:1006D00006D1032606FA05F4A14341F0706106E055
:1006E000460D360103FA06F6B14341F0706122B1BE
:1006F000460D360103FA06F6314300F00046B6F126
:10070000004F02D11C4EF16101E01B4E7160F0BD43
:1007100030B500228B071C0F0F2303FA04F2164B8F
:1007200008338C1053F824309343134C08348D1045
:1007300044F8253023468C1053F824308C07240FBE
:1007400000FA04F423430C4C08348D1044F825308F
:1007500030BD0A49DC3108607047000000080140E4
:10076000000C01400010014000140140001801403D
:10077000001C014000200140000001400000204218
:10078000DF48006840F00100DD4908600846406825
:10079000DC490840DA49486008460068DA49084000
:1007A000D74908600846006820F4802008600846A1
:1007B000406820F4FE0048604FF41F0088607047D6
:1007C000CF49096821F48031CD4A1160114609688A
:1007D00021F480211160B0F5803F03D0B0F5802F67
:1007E0000ED106E0C649096841F48031C44A11605F
:1007F00007E0C349096841F4A021C14A116000E043
:1008000000BF00BF704710B5014600220023002042
:100810004A11012A02D1BA4C236806E0022A02D109
:10082000B74C236A01E0B64C636A01F01F02012451
:1008300094401C400CB1012000E0002010BD38B5F0
:10084000002000900024002500BF3120FFF7DBFFCF
:1008500005460098401C00900098B0F5A06F01D0AC
:10086000002DF2D03120FFF7CEFF08B1012400E0C7
:100870000024204638BD01460020A14A106820F01F
:10088000F80040EAC10010607047A0490860704756
:10089000024600209A4B586820F47C1042EA01037B
:1008A0001843974B5860704798490866704701464F
:1008B0000020934A506820F00300084350607047BE
:1008C0008F48406800F00C007047014600208C4AB9
:1008D000506820F0F0000843506070470146002047
:1008E000874A506820F4E060084350607047014632
:1008F0000020834A506820F4605040EAC1005060F4
:10090000704729B17E4A527A02437D4B5A7204E005
:100910007B4A527A82437A4B5A7270477B49D8316C
:100920000860704701460020754A506820F4404036
:100930000843506070470021714A20321170704A9C
:1009400082F82010012802D004280AD104E00121F5
:100950006B4A2032117005E00521694A203211707E
:1009600000E000BF00BF70476949086070476449F4
:10097000096A0143624A1162704765494439086057
:10098000704730B500210022002400235C4D6D68C3
:1009900005F00C0121B1042905D0082923D105E077
:1009A0005C4D056022E05B4D05601FE0544D6D68B5
:1009B00005F47012524D6D6805F48034022505EB84
:1009C00092421CB9544D554305600BE04C4D6D6887
:1009D00005F400351DB1504D5543056002E04D4D05
:1009E0005543056002E04B4D056000BF00BF444D1C
:1009F0006D6805F0F0010909484D6B5C0568DD4044
:100A000045603F4D6D6805F4E061090A434D6B5C3C
:100A10004568DD4085603A4D6D6805F46051C90A4E
:100A20003E4D6B5C4568DD40C560354D6D6805F435
:100A30004041890B3A4D6B5CC568B5FBF3F5056128
:100A400030BD29B12E4A526902432D4B5A6104E050
:100A50002B4A526982432A4B5A61704729B1284A6E
:100A600092690243264B9A6104E0254A92698243C7
:100A7000234B9A61704729B1214AD2690243204B26
:100A8000DA6104E01E4AD26982431D4BDA61704785
:100A900029B11B4AD2680243194BDA6004E0184AB4
:100AA000D2688243164BDA60704729B1144A126942
:100AB0000243134B1A6104E0114A12698243104B3E
:100AC0001A61704712494039086070470F49C8647D
:100AD00070470B49C87170470948406A40F0807000
:100AE00007494862704701460020054A92680A405B
:100AF0000AB1012000E00020704701498872704768
:100B0000001002400000FFF8FFFFF6FE0000424226
:100B10008004424200127A0000093D0014000020C7
:100B20002400002010B50446BE48844208D10121AB
:100B30008014FFF7ADFF0021A014FFF7A9FF16E016
:100B4000B948844208D101210014FFF7AEFF00210B
:100B50002014FFF7AAFF0AE0B448844207D101211C
:100B6000C013FFF7A2FF0021E013FFF79EFF10BDA7
:100B700010B50022028802F441520B884C882343AE
:100B80008C882343CC8823430C8923434C892343FB
:100B90008C892343CC8923431A430280838B4FF2F1
:100BA000FF74234083830B8A038210BD2DE9F04F2D
:100BB00085B005460C464FF0000902274FF00008AB
:100BC0004FF0010B0026B246A88B4FF240010840BF
:100BD000A88302202884B5F81C90A068022801D1BF
:100BE00000BF38E0A08810B94FF0010B01E04FF0D2
:100BF000020B8D48854200D100E000BF6846FFF738
:100C0000C0FEDDF800A0E088B0F5007F0AD14FEA11
:100C10001A2000EB80004000A168B0FBF1F0401DFD
:100C200086B20BE04FEA4B10BAFBF0F000EB80000D
:100C30004000A168B0FBF1F0401D86B20A20B6FB6F
:100C4000F0F606F00108A6EB0800C0F34F074FF6D8
:100C5000FF7000EA0828022F01DBFF2F02DD0227C8
:100C60004FF00008E08840EA080038432884A08854
:100C7000A1890843618808432188084340F4006043
:100C800040EA0909A5F81C9005B0BDE8F08F0021E5
:100C9000018041808180C180018141818181C18148
:100CA0000721018270470021018041808180C1803D
:100CB0000221816000218181704721B1028842F0C8
:100CC0004002028004E002884FF6BF731A4002809F
:100CD000704721B1828B42F48062828304E0828B70
:100CE0004FF6FF331A408283704730B5002400234B
:100CF0000C110125A540ABB21AB185881D43858032
:100D000002E085889D43858030BD1AB183880B43FE
:100D1000838002E083888B438380704781817047A2
:100D20000146888970474FF6FF62914204D00288DD
:100D300042F48072028004E002884FF6FF631A409A
:100D40000280704721B1828842F00402828004E070
:100D500082884FF6FB731A408280704702884FF2F8
:100D6000FF731A40028002880A430280704701889C
:100D700041F480510180704721B1028842F4005251
:100D8000028004E002884DF6FF731A40028070472B
:100D900002460020012901D0108B00E0908A7047A4
:100DA0000146088A7047B1F5804F04D1028842F4A9
:100DB0008042028004E002884BF6FF731A400280F2
:100DC00070470246002013890B400BB1012000E060
:100DD00000207047CA4302817047F0B502460020E8
:100DE00000240023002501F00F070126BE40B4B205
:100DF0000B1101269E40B3B2968806EA03051689B8
:100E0000264016B10DB1012000E00020F0BD10B564
:100E1000002201F00F040123A3409AB2D3430381BF
:100E200010BD00000030014000380040003C004090
:100E300010B50446FE48844208D10121C014FFF7D2
:100E400027FE0021E014FFF723FEC4E0B4F1804F39
:100E500008D101210846FFF728FE00210120FFF7F5
:100E600024FEB8E0F348844208D101210220FFF7B4
:100E70001CFE00210220FFF718FEACE0EE48844281
:100E800008D101210420FFF710FE00210420FFF704
:100E90000CFEA0E0E948844208D101210820FFF7B8
:100EA00004FE00210820FFF700FE94E0E44884429D
:100EB00008D101211020FFF7F8FD00211020FFF7D5
:100EC000F4FD88E0DF48844208D101212020FFF7AB
:100ED000ECFD00212020FFF7E8FD7CE0DA488442A9
:100EE00008D101214014FFF7D3FD00216014FFF762
:100EF000CFFD70E0D548844209D10121C804FFF735
:100F0000C7FD00214FF40020FFF7C2FD63E0D04889
:100F1000844209D101210805FFF7BAFD00214FF4F1
:100F20008010FFF7B5FD56E0CA48844209D101217F
:100F30004805FFF7ADFD00214FF40010FFF7A8FDB5
:100F400049E0C548844208D101214020FFF7ADFDAA
:100F500000214020FFF7A9FD3DE0C048844208D1B0
:100F600001218020FFF7A1FD00218020FFF79DFDDA
:100F700031E0BB48844208D101218015FFF795FD7F
:100F80000021A015FFF791FD25E0B648844209D164
:100F900001210804FFF77CFD00214FF48030FFF7AA
:100FA00077FD18E0B048844209D101214804FFF7D9
:100FB0006FFD00214FF40030FFF76AFD0BE0AB48F6
:100FC000844208D101218804FFF762FD00214FF41B
:100FD0008020FFF75DFD10BD00220288944B9842EF
:100FE0000ED0994B98420BD0B0F1804F08D0914B66
:100FF000984205D0904B984202D0904B984204D131
:101000004FF68F731A404B881A438D4B984207D086
:101010008C4B984204D04FF6FF431A40CB881A43BA
:1010200002808B8883850B880385814B98420BD087
:10103000854B984208D08B4B984205D08A4B9842FA
:1010400002D08A4B984201D10B7A03860123838216
:10105000704770B5002400220023058C4FF6FE7601
:1010600035400584028C8388048B4FF68F752C40A5
:10107000B51E2C400D882C43751E2A400D892A432D
:101080004D882A436A4DA8420BD06F4DA84208D024
:10109000744DA84205D0744DA84202D0734DA842A9
:1010A00013D14FF6F7752A404D892A434FF6FB7549
:1010B0002A408D882A434FF6FF652B404FF6FF5597
:1010C0002B408D892B43CD892B4383800483CD888E
:1010D0008586028470BD70B5002400220023058C33
:1010E0004FF6EF7635400584028C8388048B48F6F2
:1010F000FF752C404FF6FF452C400D884FF6FF76CC
:1011000006EA05252C434FF6DF752A400D8906EACD
:1011100005152A434D8806EA05152A43444DA84281
:1011200002D0494DA8421DD14FF67F752A404D8906
:101130004FF6FF7606EA05152A434FF6BF752A409B
:101140008D8806EA05152A434FF6FF352B404FF2EE
:10115000FF752B408D8906EA85052B43CD8906EA6C
:1011600085052B4383800483CD880587028470BD69
:1011700070B5002400220023058C4FF6FF66354031
:101180000584028C8388848B4FF68F752C404FF634
:10119000FC752C400D882C434FF6FF552A400D89D5
:1011A0004FF6FF7606EA05252A434D8806EA05250F
:1011B0002A431F4DA84202D0234DA8421DD14FF211
:1011C000FF752A404D894FF6FF7606EA05252A432A
:1011D0004FF6FF352A408D8806EA05252A434EF64C
:1011E000FF752B404DF6FF752B408D8906EA0515DE
:1011F0002B43CD8906EA05152B4383808483CD8854
:101200008587028470BD70B5002200230024058C00
:101210004EF6FF7635400584038C8488828B48F631
:10122000FF752A404FF6FF452A400D8820E0000058
:10123000002C01400004004000080040000C004069
:10124000001000400014004000340140004C0140F8
:10125000005001400054014000180040001C0040B4
:10126000002000400040014000440140004801408F
:101270004FF6FF7606EA05252A434DF6FF752B400B
:101280000D8906EA05352B434D8806EA05352B43C3
:10129000FA4DA84202D0FA4DA84208D14BF6FF758C
:1012A0002C408D894FF6FF7606EA85152C43848005
:1012B0008283CD88A0F84050038470BD828B4FF2AA
:1012C000FF331A408283828B4FF6FF7303EA0123B8
:1012D0001A4382837047F0B50C4615460022002160
:1012E0000026078C4EF6FF7C07EA0C070784828BEA
:1012F000018C4FF6FF7707EA043640F6FF473A4085
:101300004FF6FF7707EA05273A434FF6FF7707EADC
:1013100003373A43D94FB8420ED0D94FB8420BD019
:10132000B0F1804F08D0D74FB84205D0D64FB84261
:1013300002D0D64FB84206D14DF6FF77394046F479
:101340008057394305E047F6FF57394044F480574A
:10135000394382830184F0BD828B4FF6F3731A40C8
:101360008283828B0A4382837047F0B50C46154610
:10137000002200210026078C4FF6FF6C07EA0C07BD
:101380000784828B018C4FF6FF7707EA04264FF61D
:101390000C773A404FF6FF7707EA03172F433A439B
:1013A000B64FB8420ED0B64FB8420BD0B0F1804F16
:1013B00008D0B44FB84205D0B34FB84202D0B34FB3
:1013C000B84206D14FF6FF57394046F4807739438B
:1013D00005E04FF2FF57394044F480773943828368
:1013E0000184F0BD028B4FF2FF331A400283028B5F
:1013F0004FF6FF7303EA01231A4302837047F0B5E7
:101400000C461546002200210026078C4FF6EF7C83
:1014100007EA0C070784028B018C4FF6FF7707EA77
:10142000041640F6FF473A404FF6FF7707EA0337C6
:101430003A434FF6FF7707EA05273A438F4FB84202
:101440000ED08F4FB8420BD0B0F1804F08D08D4FE7
:10145000B84205D08C4FB84202D08C4FB84206D16A
:101460004FF6DF77394046F01007394305E04FF675
:101470005F77394044F01007394302830184F0BD9F
:10148000028B4FF6F3731A400283028B0A430283E6
:101490007047F0B50C46154600220021068C4FF629
:1014A000FE773E400684028B018C4FF60C7632406C
:1014B0007E1C06EA03162E433243704EB0420ED015
:1014C0006F4EB0420BD0B0F1804F08D06D4EB0429D
:1014D00005D06D4EB04202D06C4EB04206D14FF6F0
:1014E000FD76314044F00106314305E04FF6F576D4
:1014F000314044F00106314302830184F0BD70B5F0
:1015000005460C465D4885420ED05D4885420BD0AD
:10151000B5F1804F08D05B48854205D05A488542D6
:1015200002D05A48854200D100E000BF208850B95F
:101530002389A28861882846FFF7ABFFE188284607
:10154000FFF79EFF25E0208804280AD12389A2887E
:1015500061882846FFF753FFE1882846FFF742FFDE
:1015600017E0208808280AD12389A28861882846A4
:10157000FFF7FBFEE1882846FFF7EEFE09E023892E
:10158000A28861882846FFF7A6FEE1882846FFF773
:1015900095FE70BD2DE9F04105460C460026012759
:1015A000608808B9022600E00026A088012801D141
:1015B000022700E001272088A0B92389A28861883A
:1015C0002846FFF766FFE1882846FFF759FF238981
:1015D0003A4631462846FFF712FFE1882846FFF7D2
:1015E00001FF13E02389A28861882846FFF707FFDF
:1015F000E1882846FFF7F6FE23893A463146284619
:10160000FFF747FFE1882846FFF73AFFBDE8F08182
:101610000A884B881A438B881A43CB881A430B8954
:101620001A434B891A438B891A43A0F84420704708
:101630004FF6FF71818000210180C18041800172DD
:1016400070470021018041808180C18001814181FA
:101650008181C18170470021018041800121818009
:101660000021C1800181704700210180418081807B
:10167000C18001814181818170470000002C0140BF
:10168000003401400004004000080040000C00400D
:1016900021B1028842F00102028004E002884FF684
:1016A000FE731A400280704731B1B0F8442042F412
:1016B0000042A0F8442005E0B0F84420C2F30E0236
:1016C000A0F8442070471AB183890B43838102E05C
:1016D00083898B43838170478182704741EA02038B
:1016E000A0F8483070471AB183890B43838102E028
:1016F00083898B438381704701894FF6F8721140CB
:10170000018170470A46002101894FF68F73194005
:1017100011430181704730B504460D4629462046E5
:10172000FFF7F0FF208940F00700208130BD2DE950
:10173000F04104460D4616461F46602D06D13B4635
:10174000012231462046FFF75AFE05E03B460122C2
:1017500031462046FFF79DFE29462046FFF7D2FF7F
:10176000208940F007002081BDE8F08130B50C46AB
:1017700000210189C9B24FF6FF7505EA032515431B
:1017800025432943018130BD2DE9F04105460E4630
:1017900017469846002443463A4631462846FFF706
:1017A000E5FF2C894FF6F870044044F007044FF62B
:1017B0008F70044044F070042C81BDE8F081F0B5D6
:1017C00004460D4616461F463B46324629462046ED
:1017D000FFF7CCFF208940F480402081F0BD0185D7
:1017E000828270470A46002101884FF68F731940A4
:1017F000114301807047F0B50C4615461E46002186
:10180000002200230189028B038C4FF6F8773940C0
:1018100021434FF6FC473A4040F201173A434FF656
:10182000DD773B404FF6FF7707EA06172F433B4330
:10183000018102830384F0BD0A460021018B4FF62B
:101840008F7319401143018370470A460021018BB1
:1018500048F6FF7319404FF6FF7303EA022319435A
:10186000018370470A460021818B4FF68F73194020
:101870001143818370470A460021818B48F6FF732C
:1018800019404FF6FF7303EA02231943818370471F
:1018900021B1028842F08002028004E002884FF603
:1018A0007F731A400280704721B1828842F004029F
:1018B000828004E082884FF6FB731A408280704772
:1018C00021B1828842F00802828004E082884FF6CB
:1018D000F7731A408280704721B1828842F001027A
:1018E000828004E082884FF6FE731A40828070473F
:1018F0000A460021018B4FF6F7731940114301830B
:1019000070470A460021018B4FF2FF7319404FF6D2
:10191000FF7303EA02231943018370470A4600213B
:10192000818B4FF6F77319401143818370470A4644
:101930000021818B4FF2FF7319404FF6FF7303EACA
:1019400002231943818370470A460021018B4FF619
:10195000FB7319401143018370470A460021018B34
:101960004FF6FF3319404FF6FF7303EA0223194382
:10197000018370470A460021818B4FF6FB731940A3
:101980001143818370470A460021818B4FF6FF3354
:1019900019404FF6FF7303EA02231943818370470E
:1019A0000A460021018B4FF67F73194011430183D2
:1019B00070470A460021018BC1F30E014FF6FF73F9
:1019C00003EA02231943018370470A460021818BF1
:1019D0004FF67F7319401143818370470A460021F7
:1019E000818BC1F30E014FF6FF7303EA0223194303
:1019F000818370470A460021018C4FF6FD73194020
:101A00001143018470470A460021018C4FF6F77399
:101A100019401143018470470A460021018C4FF69A
:101A2000DF7319404FF6FF7303EA02131943018471
:101A300070470A460021018C4FF67F7319404FF61C
:101A4000FF7303EA02131943018470470A46002119
:101A5000018C4FF6FF5319404FF6FF7303EA022340
:101A60001943018470470A460021018C4FF2FF732D
:101A700019404FF6FF7303EA0223194301847047AC
:101A80000A460021018C4DF6FF7319404FF6FF7393
:101A900003EA023319430184704730B5002301245F
:101AA0008C40A3B2048C9C430484048C02FA01F59C
:101AB000ADB22C43048430BD30B5002304248C40E7
:101AC000A3B2048C9C430484048C02FA01F5ADB2E9
:101AD0002C43048430BD70B5034600200024184612
:101AE000183001258D40ACB21D8CA5431D8409B171
:101AF000082909D100EB6100056825F07005056033
:101B00000568154305600EE00D1FC5F34E0528441A
:101B1000056825F4E045056005684FF6FF7606EA9E
:101B200002263543056070BD21B1028842F00202F1
:101B3000028004E002884FF6FD731A40028070476D
:101B400021B1028842F00402028004E002884FF6CC
:101B5000FB731A400280704721B1828842F08002F4
:101B6000828004E082884FF67F731A40828070473B
:101B700002884FF6F7731A40028002880A430280F7
:101B8000704782884FF68F731A40828082880A439A
:101B90008280704702894FF6F8731A4002810289E9
:101BA0000A430281704702894FF67F731A4002810F
:101BB00002890A430281704781847047818570479A
:101BC000818670470187704781877047A0F8401071
:101BD000704702884FF6FF431A40028002880A438A
:101BE000028070470146888E70470146088F704713
:101BF0000146888F70470146B1F8400070470146A2
:101C0000888C70470146088D704702460020138A71
:101C10000B400BB1012000E000207047CA43028254
:101C2000704730B50246002000230024158A05EADB
:101C30000103958905EA010413B10CB1012000E00C
:101C4000002030BDCA4302827047000010B5044630
:101C5000FB48844209D101218803FEF719FF0021C6
:101C60004FF48040FEF714FF32E0F648844209D179
:101C700001214804FEF719FF00214FF40030FEF760
:101C800014FF25E0F048844209D101218804FEF7C1
:101C90000CFF00214FF48020FEF707FF18E0EB480F
:101CA000844209D10121C804FEF7FFFE00214FF450
:101CB0000020FEF7FAFE0BE0E548844208D101213E
:101CC0000805FEF7F2FE00214FF48010FEF7EDFE4E
:101CD00010BD2DE9F04786B005460E460024A24609
:101CE00000BFA1460027B08900B100BF2F462C8A53
:101CF0004CF6FF700440F08804432C82AC894EF609
:101D0000F3100440B08831890843718908430443C3
:101D1000AC81AC8A4FF6FF400440B0890443AC82EA
:101D200001A8FEF72EFEC648874202D1DDF810A0BA
:101D300001E0DDF80CA0A88900F4004040B10AEBF6
:101D4000CA0000EB0A1031684900B0FBF1F807E067
:101D50000AEBCA0000EB0A1031688900B0FBF1F809
:101D60006420B8FBF0F004012009642101FB108914
:101D7000A88900F4004040B1322000EBC900B0FB5C
:101D8000F1F000F00700044308E0322000EB0910F6
:101D90006421B0FBF1F000F00F0004432C8106B089
:101DA000BDE8F0874FF41651016000218180C180A9
:101DB00001810C21418100218181704710B50246CB
:101DC0000020108A4FF2FF0318400B884C882343F1
:101DD0008C882343CC8823431843108210BD0021F4
:101DE000018041808180C180704721B1828942F4A5
:101DF0000052828104E082894DF6FF731A4082818D
:101E00007047F0B50346002400260025002040F668
:101E10006A17B94200D100BF1846C1F3421401F05D
:101E20001F06012707FA06F5012C01D10C3004E04A
:101E3000022C01D1103000E014301AB107682F4392
:101E4000076002E00768AF430760F0BD1AB1838AFC
:101E50000B43838202E0838A8B4383827047028A2A
:101E60004FF6F0731A400282028A0A4302827047D8
:101E700082894FF2FF731A40828182890A438281EC
:101E8000704721B1828942F00202828104E0828996
:101E90004FF6FD731A4082817047028A4FF6DF7356
:101EA0001A400282028A0A430282704721B1028AE2
:101EB00042F48042028204E0028A4BF6FF731A4029
:101EC00002827047C1F30802828070470146888809
:101ED000C0F308007047818941F00101818170479A
:101EE000028BD2B20283028B42EA01220283704744
:101EF000028B02F47F420283028B0A430283704703
:101F000021B1828A42F02002828204E0828A4FF666
:101F1000DF731A408282704721B1828A42F0100238
:101F2000828204E0828A4FF6EF731A408282704701
:101F300021B1828A42F00802828204E0828A4FF64E
:101F4000F7731A408282704721B1828942F40042BD
:101F5000828103E08289C2F30E028281704721B13F
:101F6000828A42F40062828204E0828A4FF2FF7326
:101F70001A4082827047828A4FF6FB731A4082822F
:101F8000828A0A438282704721B1828A42F0020229
:101F9000828204E0828A4FF6FD731A408282704783
:101FA00002460020B1F5007F00D100BF13880B402E
:101FB0000BB1012000E00020704701F40072B2F57F
:101FC000007F00D100BFCA430280704770B502464F
:101FD000002400230025002040F66A16B14200D1FB
:101FE00000BFC1F3421501F01F03012606FA03F3F7
:101FF000012D02D19689334006E0022D02D1168AC6
:10200000334001E0968A33400C12012606FA04F4AC
:102010001688344013B10CB1012000E0002070BDDF
:1020200010B50022002340F66A14A14200D100BF7F
:102030000A1201249440A3B2DC43048010BD0000C6
:10204000003801400044004000480040004C00407F
:102050000050004000F014F800F032FB01E001F005
:10206000BDFCFCE7704700BFFEE700BFFEE700BF16
:10207000FEE700BFFEE770477047704770470000FB
:1020800000B585B0012144F20500FEF7E7FC4FF4EE
:102090000070ADF8100018208DF8130003208DF8A3
:1020A000120004A9BB48FEF71DFA4FF48060ADF89A
:1020B000100004208DF8130004A9B648FEF712FAA8
:1020C0004FF4E13000900020ADF80400ADF80600B8
:1020D000ADF808000C20ADF80A000020ADF80C00A7
:1020E0006946AD48FFF7F5FD0121AB48FFF77DFEDE
:1020F00005B000BD00B585B001214804FEF7BBFC6A
:1021000001210520FEF7AAFC0420ADF810001820DC
:102110008DF8130003208DF8120004A99D48FEF7E6
:10212000E1F90820ADF8100004208DF8130004A98F
:102130009848FEF7D7F94FF4165000900020ADF8FC
:102140000400ADF80600ADF808000C20ADF80A0058
:102150000020ADF80C0069469048FFF7BAFD012257
:1021600040F225518D48FFF74CFE01218B48FFF7C7
:102170003CFE05B000BD08B54FF4E060FEF7E4F8A2
:1021800026208DF8000000208DF8020001208DF837
:1021900003006846FEF7DDF808BD70B504460D463D
:1021A00040217D48FFF709FFE1B27B48FFF78AFE37
:1021B00000BF40217848FFF7F3FE0028F9D0204601
:1021C00070BDF0B503460D461646002729460A2E77
:1021D00003D0002008702846F0BD33B9302001F844
:1021E000010B002008702846F6E7002B03DA2D20AB
:1021F00001F8010B5B4242F210720DE093FBF2F426
:1022000004B937B104F1300001F8010B04FB1233BB
:1022100001270A2092FBF0F2002AEFDC0020087070
:102220002846D9E70FB470B586B006460CA80190D1
:10223000A5E040213046FFF7C0FE0B9800785C28EF
:1022400036D10B98401C0B9000786E2810D0722865
:102250001DD10D213046FFF735FE00BF402130462D
:10226000FFF79EFE0028F9D00B98401C0B901EE053
:102270000A213046FFF726FE00BF40213046FFF717
:102280008FFE0028F9D00B98401C0B900FE00B98A4
:1022900001783046FFF716FE00BF40213046FFF7B9
:1022A0007FFE0028F9D00B98401C0B9000BF66E021
:1022B0000B980078252854D10B98401C0B9000787F
:1022C000632837D0642818D0732845D1019810C8E6
:1022D00001900BE021783046FFF7F4FD00BF40216C
:1022E0003046FFF75DFE0028F9D0641C20780028F6
:1022F000F0D10B98401C0B9032E0019820C801905F
:102300000A2202A92846FFF75CFF02AC0BE0217805
:102310003046FFF7D7FD00BF40213046FFF740FEB3
:102320000028F9D0641C20780028F0D10B98401CBC
:102330000B9015E0019820C80190A9B23046FFF734
:10234000C1FD00BF40213046FFF72AFE0028F9D02A
:102350000B98401C0B9003E00B98401C0B9000BFA7
:102360000DE00B9810F8011B0B903046FFF7AAFD0B
:1023700000BF40213046FFF713FE0028F9D00B982C
:10238000007800287FF455AF019006B070BC5DF86E
:1023900014FB0000000801400038014000440040E8
:1023A000002107E042F6E06100BF0A1EA1F101032F
:1023B00099B2FAD1021EA0F10100F3D1704700B525
:1023C00087B001214520FEF749FB01210803FEF7F4
:1023D00045FBE020ADF8040003208DF8060018202E
:1023E0008DF8070001A9C548FEF77CF80220ADF87A
:1023F000040003208DF8060010208DF8070001A9C5
:10240000BE48FEF76FF80820ADF8040003208DF8F1
:10241000060048208DF8070001A9B848FEF762F8C9
:102420000221B648FEF70BF90020ADF808004FF482
:102430008270ADF80A000020ADF80C000220ADF863
:102440000E000120ADF810004002ADF81200082087
:10245000ADF814000020ADF816000720ADF8180004
:1024600002A9A748FEF784FB0121A548FEF725FC39
:1024700007B000BD10B5044600BF0221A048FEF71A
:10248000A0FC0028F9D021469D48FEF747FC00BF7C
:1024900001219B48FEF795FC0028F9D09848FEF7EB
:1024A0003FFCC0B210BD70B505460C4602219348F2
:1024B000FEF7C7F82846FFF7DDFF2046FFF7DAFFF3
:1024C00002218E48FEF7BBF870BD70B504460221AC
:1024D0008A48FEF7B6F844F08000FFF7CBFFFF20F4
:1024E000FFF7C8FF054602218448FEF7A8F82846F2
:1024F00070BD10B509210120FFF7D5FF372102205B
:10250000FFF7D1FFE2210320FFF7CDFF17210420C1
:10251000FFF7C9FF00210520FFF7C5FF5021062066
:10252000FFF7C1FF14210720FFF7BDFFC0210820DE
:10253000FFF7B9FF12210920FFF7B5FF02210A209A
:10254000FFF7B1FF01210B20FFF7ADFF10BD10B564
:1025500000206C4908606C49086000BF082167488A
:10256000FEF753F80028F9D12120FFF7AEFF6749A5
:102570000880084600886349096808436149086083
:1025800000BF08215D48FEF740F80028F9D122205D
:10259000FFF79BFF5D494880084640885949096814
:1025A00041EA00205749086000BF08215348FEF760
:1025B0002CF80028F9D12320FFF787FF53498880A2
:1025C000084680885049096808434F49086000BFA1
:1025D00008214A48FEF719F80028F9D12420FFF70E
:1025E00074FF4A49C8800846C0884749096841EADB
:1025F00000204549086000BF08214048FEF705F863
:102600000028F9D12520FFF760FF404908810846DE
:1026100000893D49096841EA00403B49086010BD16
:1026200010B588B002240320ADF818000020ADF8E2
:102630001400ADF81A00ADF8160005A93448FEF7ED
:10264000CBFC01213248FFF7E9FA0122114630485C
:10265000FFF739F86020ADF804000120ADF806005E
:10266000ADF80A400020ADF80C0001A92848FEF79B
:102670007FFD08212648FFF751F901212448FFF783
:1026800007F808B010BD08B501210220FEF7F3F9E4
:1026900001210820FEF7E2F90120ADF80000182022
:1026A0008DF8030003208DF8020069461948FDF7F4
:1026B00019FF08BD10B5FFF7E6FFFFF7B1FF10BD2A
:1026C00010B5FFF7F7FFFFF77AFEFFF712FF10BD17
:1026D00008B54FF4E060FDF737FE1D208DF80000CF
:1026E00000208DF8010003208DF8020001208DF8F4
:1026F00003006846FDF72DFE08BD000000080140FC
:1027000000300140280000202C0000204400002060
:1027100000040040000C014030B5014601F01F04E8
:10272000C1F34513CA0AE50205EB43151544A8B2E7
:1027300030BD2DE9F04706460F4690469A460024E4
:1027400045464FEA4800C0F103094AE07A1991B2C0
:10275000321990B2524600F0B5FE7A1991B2321B8E
:1027600090B2524600F0AEFE7A1B91B2321990B28E
:10277000524600F0A7FE7A1B91B2321B90B252462D
:1027800000F0A0FE3A1991B2721990B2524600F0D0
:1027900099FE3A1991B2721B90B2524600F092FE25
:1027A0003A1B91B2721990B2524600F08BFE3A1B5E
:1027B00091B2721B90B2524600F084FEB9F1000F44
:1027C00005DA042000FB049000F1060907E0601B15
:1027D000042101FB009000F10A09681E85B2601C0B
:1027E00084B2AC42B2DBAC4237D17A1991B2321921
:1027F00090B2524600F066FE7A1991B2321990B248
:10280000524600F05FFE7A1B91B2321990B25246E6
:1028100000F058FE7A1B91B2321B90B2524600F083
:1028200051FE3A1991B2721990B2524600F04AFE26
:102830003A1991B2721B90B2524600F043FE3A1B15
:1028400091B2721990B2524600F03CFE3A1B91B21E
:10285000721B90B2524600F035FEBDE8F0872DE9BC
:10286000FF4F83B0804689464946404600F0FCFD54
:102870000598A0EB08050698A0EB0906002D02DBE1
:102880000120029003E04FF0FF3002906D42002ED5
:1028900002DB0120019003E04FF0FF30019076420F
:1028A0004FEA450A4FEA460BB54219DDABEB05048A
:1028B000002712E049464046109A00F003FE002C23
:1028C00005DBA4EB0A04019848441FFA80F95C4434
:1028D000029840441FFA80F87F1CAF42EADD18E0FE
:1028E000AAEB0604002712E049464046109A00F081
:1028F000E9FD002C05DBA4EB0B04029840441FFA11
:1029000080F85444019848441FFA80F97F1CB7426C
:10291000EADD07B0BDE8F08F2DE9F84305460C4627
:1029200016461F46DDF820804EF67D700090A819EF
:1029300082B2234621462846FFF791FF42F66510F2
:1029400004F1010CBC441FFA8CF305EB060CACF14E
:10295000010C1FFA8CF204F1010C1FFA8CF105EB4B
:10296000060CACF1010C00901FFA8CF0FFF777FF1A
:1029700042F665100090E01983B2A81982B2E019FE
:1029800081B22846FFF76BFF4EF67D700090E0198C
:1029900083B22A4621462846FFF761FF04F1010C65
:1029A000BC44ACF1020C1FFA8CF305F1010CB444E9
:1029B000ACF1020C1FFA8CF204F1010C1FFA8CF13D
:1029C00005F1010C1FFA8CF0CDF80080FFF747FFEE
:1029D000BDE8F8832DE9F84305460C4616461F4628
:1029E000DDF82080B8F1000F39D14EF67D700090EF
:1029F000A81982B2234621462846FFF730FF42F647
:102A0000651004F1010CBC441FFA8CF305EB060CB5
:102A1000ACF1010C1FFA8CF204F1010C1FFA8CF1DD
:102A200005EB060CACF1010C00901FFA8CF0FFF7DF
:102A300016FF42F665100090E01983B2A81982B221
:102A4000E01981B22846FFF70AFF4EF67D7000902C
:102A5000E01983B22A4621462846FFF700FFB8F165
:102A6000010F39D142F665100090A81982B22346B1
:102A700021462846FFF7F3FE4EF67D7004F1010C67
:102A8000BC441FFA8CF305EB060CACF1010C1FFAE9
:102A90008CF204F1010C1FFA8CF105EB060CACF181
:102AA000010C00901FFA8CF0FFF7D9FE4EF67D70F6
:102AB0000090E01983B2A81982B2E01981B22846C9
:102AC000FFF7CDFE42F665100090E01983B22A466A
:102AD00021462846FFF7C3FEB8F1020F39D14FF661
:102AE000FF700090A81982B2234621462846FFF7BE
:102AF000B6FE4FF6FF7004F1010CBC441FFA8CF3D4
:102B000005EB060CACF1010C1FFA8CF204F1010C80
:102B10001FFA8CF105EB060CACF1010C00901FFACA
:102B20008CF0FFF79CFE4FF6FF700090E01983B227
:102B3000A81982B2E01981B22846FFF790FE4FF63D
:102B4000FF700090E01983B22A4621462846FFF71D
:102B500086FEBDE8F883F8B504460D4616461F46C6
:102B600044F208202B463246294600902046FFF7C3
:102B700076FE48F210406A1C93B291B2621C00903B
:102B800090B23246FFF76BFE44F208203B462246E5
:102B9000294600902046FFF762FE48F21040631C71
:102BA0009AB26B1C99B2631C009098B23B46FFF737
:102BB00056FE4FF6FF703B4632463946009020469F
:102BC000FFF74DFE4FF6FF703B4632462946009018
:102BD0003046FFF744FEF8BDF8B506460F461446EA
:102BE0001D464FF6FF703B46224639460090304660
:102BF000FFF735FE4FF6FF702B4632463946009000
:102C00003046FFF72CFE48F210406A1E93B291B294
:102C1000721C009090B22246FFF721FE44F2082079
:102C20002B462246294600903046FFF718FE48F210
:102C30001040631E9AB27B1C99B2631E009098B23A
:102C40002B46FFF70CFE44F208202B46224639465D
:102C500000902046FFF703FEF8BD2DE9F84F074628
:102C6000884693469A46DDF828900097B3E099F895
:102C7000000080283DDA99F800600D2E05D1009FF4
:102C800008F110001FFA80F830E0202E03DDA6F1D5
:102C9000200086B200E00026002422E000251CE08F
:102CA00004EB0610E849085C80212941084040B146
:102CB00008EB040291B27A1990B25A4600F002FC75
:102CC00009E0D34507D008EB040291B27A1990B21B
:102CD000524600F0F7FB681CC5B2082DE0DB601C13
:102CE000C4B2102CDADB07F1080087B209F1010940
:102CF00071E0002668E006EB0610D44911F81000D8
:102D000099F8001088425DD106EB0610CF4901EB1F
:102D10004000407899F80110884253D100244FE0D8
:102D2000002520E006EB0610C84901EB4000801C9E
:102D300010F8141080202841014041B108EB040232
:102D400091B27A1990B25A4600F0BCFB09E0D34523
:102D500007D008EB040291B27A1990B2524600F003
:102D6000B1FB681CC5B2082DDCDB002524E006EBB6
:102D70000610B64901EB4000801C012101EB440123
:102D8000405C80212941084048B108EB040291B21F
:102D90007A19083290B25A4600F094FB0AE0D34503
:102DA00008D008EB040291B27A19083290B2524668
:102DB00000F088FB681CC5B2082DD8DB601CC4B2CB
:102DC000102CADDB701C86B2502E94DB09F1020989
:102DD00007F1100087B299F8000000287FF447AF90
:102DE000BDE8F88F2DE9F05F0646884693469A467F
:102DF000DDF82890E2E099F80000802835DA99F8AB
:102E00000070202F03DDA7F1200087B200E000272B
:102E1000002522E000241CE005EB07108A49095C2C
:102E200080202041014041B108EB050291B23219E6
:102E300090B25A4600F046FB09E0D34507D008EBB4
:102E4000050291B2321990B2524600F03BFB601C71
:102E5000C4B2082CE0DB681CC5B2102DDADB09F126
:102E6000010906F1080086B2A8E000279EE007EB02
:102E7000870000EB4710764911F8100099F8001010
:102E800088427CD107EB870000EB4710704901EBCB
:102E90004000407899F801108842F2D1002580E086
:102EA000002423E007EB870000EB4710684901EBA3
:102EB0004000801C05EB4501405C80212141084019
:102EC00040B108EB050291B2321990B25A4600F0B7
:102ED000F9FA09E0D34507D008EB050291B232199F
:102EE00090B2524600F0EEFA601CC4B2082CD9DB56
:102EF000002426E007EB870000EB4710544901EB64
:102F00004000801C05EB4501491C405C80212141AB
:102F1000084048B108EB050291B23219083290B26C
:102F20005A4600F0CFFA0AE0D34508D008EB050274
:102F300091B23219083290B2524600F0C3FA601CC6
:102F4000C4B2082CD6DB002427E007EB870000EB97
:102F500047103F4901EB4000801C05EB4501891CEF
:102F6000405C80212141084050B108EB050291B23C
:102F70003219103290B25A4600F0A4FA0BE013E076
:102F8000D34508D008EB050291B23219103290B245
:102F9000524600F097FA601CC4B2082CD5DB681CBE
:102FA000C5B2182DFFF67CAF781C87B2142FFFF640
:102FB0005EAF09F1020906F1180086B299F8000027
:102FC00000287FF418AFBDE8F09F2DE9F05F0746B9
:102FD000884692469946002531E000242BE01D49A1
:102FE0000A9801EBC01000EB850010F804B0002631
:102FF0001DE08020304100EA0B0050B108EB0502D3
:1030000091B207EBC402324490B2524600F05AFA31
:103010000BE0CA4509D008EB050291B207EBC402E8
:10302000324490B24A4600F04DFA701CC6B2082EE7
:10303000DFDB601CC4B2042CD1DB681CC5B2202DC0
:10304000CBDBBDE8F09F0000063C00087849000893
:10305000E6520008F741000808B501210820FDF7F5
:10306000FDFC4FF47E40ADF8000003208DF8020017
:1030700010208DF803006946F948FDF733FA08BDC2
:103080000021082118E000F080022AB14FF400422C
:10309000F34B10331A6004E04FF40042F04B14334A
:1030A0001A604FF40052EE4B14331A601B1F1A6063
:1030B0004206100E4A1ED1B20029E4DC70470246D7
:1030C00000BF108900F002000028FAD0918100BFF3
:1030D000108900F001000028FAD09089C0B2704732
:1030E00002884FF6C7731A400280012902D1028874
:1030F000028003E0028842F020020280028842F04F
:1031000040020280704700B587B001210920FDF719
:10311000A5FC4FF42040ADF8040003208DF8060014
:1031200018208DF8070001A9CD48FDF7DBF94FF411
:103130008040ADF8040048208DF8070003208DF88A
:10314000060001A9C648FDF7CDF94FF4F050ADF8DF
:10315000040003208DF8060010208DF8070001A957
:10316000BF48FDF7BFF901218803FDF784FC00206B
:10317000ADF808004FF48270ADF80A000020ADF8F9
:103180000C000220ADF80E000120ADF81000400246
:10319000ADF812000020ADF81400ADF816000720BD
:1031A000ADF8180002A9AF48FDF7E2FC0121AD48D7
:1031B000FDF783FD07B000BD00B503464FF4006086
:1031C000A74914310860401008601946A548FFF768
:1031D00076FF4FF40060A2491031086000BD00B5D1
:1031E00003464FF400609E49143108604010091FE7
:1031F000086019469B48FFF762FF4FF4006098494A
:103200001031086000BD10B504462012FFF7E7FF3B
:10321000E0B2FFF7E4FF10BD30B505460C46284686
:10322000FFF7CAFF2046FFF7EEFF30BD10B54FF4A1
:1032300080508B4914310860642000F087FC4FF403
:103240008050874910310860322000F07FFC10BDAB
:1032500010B5FFF758FFFFF7E9FF1120FFF7ACFFAC
:103260000020FFF7BCFFCF20FFF7A6FF0020FFF7ED
:10327000B6FFC120FFF7B3FF3020FFF7B0FFED200E
:10328000FFF79AFF6420FFF7AAFF0320FFF7A7FFCD
:103290001220FFF7A4FF8120FFF7A1FFE820FFF72E
:1032A0008BFF8520FFF79BFF1120FFF798FF782009
:1032B000FFF795FFF620FFF77FFF0120FFF78FFF55
:1032C0003020FFF78CFF0020FFF789FFCB20FFF7AE
:1032D00073FF3920FFF783FF2C20FFF780FF0020CA
:1032E000FFF77DFF3420FFF77AFF0520FFF777FF18
:1032F000F720FFF761FF2020FFF771FFEA20FFF7BB
:103300005BFF0020FFF76BFF0020FFF768FFC02086
:10331000FFF752FF2020FFF762FFC120FFF74CFFAD
:103320001120FFF75CFFC520FFF746FF3120FFF7B4
:1033300056FF3C20FFF753FFC720FFF73DFFA920B2
:10334000FFF74DFF3A20FFF737FF5520FFF747FF04
:103350003620FFF731FF4820FFF741FFB120FFF78C
:103360002BFF0020FFF73BFF1820FFF738FFB420AA
:10337000FFF722FF0020FFF732FF0020FFF72FFFAB
:10338000F220FFF719FF0020FFF729FF2620FFF7A3
:1033900013FF0120FFF723FFE020FFF70DFF0F20B1
:1033A000FFF71DFF1720FFF71AFF1420FFF717FF85
:1033B0000920FFF714FF0C20FFF711FF0620FFF78D
:1033C0000EFF4320FFF70BFF7520FFF708FF3620A5
:1033D000FFF705FF0820FFF702FF1320FFF7FFFEAE
:1033E0000520FFF7FCFE1020FFF7F9FE0B20FFF78A
:1033F000F6FE0820FFF7F3FEE120FFF7DDFE0020D8
:10340000FFF7EDFE1F20FFF7EAFE2320FFF7E7FEA0
:103410000320FFF7E4FE0E20FFF7E1FE0420FFF794
:10342000DEFE3920FFF7DBFE2520FFF7D8FE4D201A
:10343000FFF7D5FE0620FFF7D2FE0D20FFF7CFFEE7
:103440000B20FFF7CCFE3320FFF7C9FE3720FFF734
:10345000C6FE0F20FFF7C3FE2920FFF7ADFE10BD0B
:10346000000C01400038004030B505460C462A20CB
:10347000FFF7A2FE2846FFF7C6FE2B20FFF79CFEB3
:103480002046FFF7C0FE2C20FFF796FE30BDF0B5BA
:1034900007460C4615461E462A20FFF78DFE384685
:1034A000FFF7B1FE2846FFF7AEFE2B20FFF784FEA4
:1034B0002046FFF7A8FE3046FFF7A5FE2C20FFF7B9
:1034C0007BFEF0BD70B505460E46144631462846D3
:1034D000FFF7CAFF2046FFF796FE70BD30B50446E1
:1034E00040F23F13EF2200210846FFF7D0FF4FF4D0
:1034F00000600C4908604010091F0860002508E0C2
:1035000021120948FFF7DBFDE1B20748FFF7D7FDBD
:103510006D1CB5F5963FF3D34FF400600149091FC8
:10352000086030BD140C01400038004008B54EF66C
:103530007D70FFF7D3FFFDA04EF67D731F220221A1
:1035400000901020FFF789FBFCA04EF67D734FF42E
:103550007842142100901020FFF77FFB3A2371225C
:1035600026210F20FFF738FBF8A04EF67D734FF4AD
:10357000FC62282100901020FFF76FFB5823712276
:1035800044210F20FFF728FBF4A04EF67D731F2285
:10359000462100901020FFF760FB76237122622104
:1035A0000F20FFF719FBF1A04EF67D734FF4784220
:1035B000642100901020FFF750FBF0A04EF67D73C1
:1035C0004FF478428C2100901020FFF746FBED4825
:1035D00040794EF67D734FF478427D21009064204F
:1035E000FFF7F3FC4FF47A7000F0B0FAE548007989
:1035F0004EF67D734FF478427D2100906420FFF7F2
:10360000E4FC4FF47A7000F0A1FADE48C0784EF680
:103610007D734FF478427D2100906420FFF7D5FC44
:103620004FF47A7000F092FAD64880784EF67D73A7
:103630004FF478427D2100906420FFF7C6FC4FF4E0
:103640007A7000F083FACF4840784EF67D734FF4DD
:1036500078427D2100906420FFF7B7FC4FF47A7028
:1036600000F074FAC74800784EF67D734FF4784244
:103670007D2100906420FFF7A8FC08BDF8B5002468
:103680004EF67D70FFF72AFFBFA04EF67D734FF414
:103690007842142100901020FFF7DFFA4FF47A707F
:1036A00000F054FA4EF67D70FFF718FF00BF21E0DE
:1036B000032094FBF0F040011E3085B2032094FB00
:1036C000F0F100FB114000EB80004FF6FF7101EAC2
:1036D000C006AC49601C085C4EF67D734FF478421E
:1036E000294600903046FFF770FC642000F02EFA67
:1036F000601CC4B20A2CDBDBF8BD08B54EF67D7049
:10370000FFF7ECFE95A04EF67D731F220A21009074
:103710001020FFF7A2FA4FF47A7000F017FA4EF675
:103720007D70FFF7DBFE81A04EF67D734FF478428B
:103730001E2100901020FFF790FA96A04EF67D73A0
:103740001F22322100901020FFF787FA95A04EF635
:103750007D734FF47842462100901020FFF77DFAE8
:1037600094A04EF67D731F22642100900020FFF785
:1037700074FA94A04EF67D734FF478428221009043
:103780000020FFF76AFA40F2DC5000F0DFF908BDD4
:1037900038B501244EF67D70FFF7A0FE6BA04EF603
:1037A0007D731F220A2100901420FFF756FA4FF470
:1037B000966000F0CBF925E04FF6FF70FFF78EFE24
:1037C0004FF4FA7000F0C2F90020FFF787FE4FF4C3
:1037D000FA7000F0BBF94FF47840FFF77FFE4FF42A
:1037E000FA7000F0B3F94FF4FC60FFF777FE4FF486
:1037F000FA7000F0ABF91F20FFF770FE4FF4FA707B
:1038000000F0A4F9201EA4F10101CCB2D4D138BD3E
:103810002DE9F84307464EF67D70FFF75FFE53A093
:103820004EF67D731F220A2100901020FFF715FA33
:103830004FF47A7000F08AF94EF67D70FFF74EFE75
:10384000002633E000252EE006EB860C4FEACC0C78
:103850000CF1270C1FFA8CF305EB850C4FEACC0C0E
:103860000CF1270C1FFA8CF206EB860C4FEACC4CBD
:103870004FEA1C4105EB850C4FEACC4C4FEA1C404B
:10388000FFF705FE00240AE017F8149007EB440048
:1038900090F8018049EA0820FFF7B5FC641CB4F5F4
:1038A000C86FF1DB6D1C062DCEDB761C082EC9DB44
:1038B000BDE8F88310B5FFF7CBFC4FF40070454925
:1038C0000860FFF733FEFFF763FFFFF7D7FEFFF750
:1038D00014FF4148FFF79CFF40F2DC5000F036F93E
:1038E0004FF400703B49091D086010BDF8B505464E
:1038F0000C46002617E00A20B4FBF0F100FB114053
:1039000020490F5C06EBC60101EB06104EF67D73F5
:103910004FF4784229460097FFF757FB0A20B4FB83
:10392000F0F4701CC6B2002CE5D1F8BDC8ABB6AF40
:10393000B5E7D7D3BCBCCAF500000000D2BABEA719
:10394000B2E2CAD4B3CCD0F200000000D1D5C9ABEA
:10395000CCEEB3E4B2E2CAD400000000CEC4D7D6A5
:10396000CFD4CABEB2E2CAD400000000CDBCC6ACFF
:10397000CFD4CABEB2E2CAD40000000057656C635F
:103980006F6D6500340000204E756D2054657374B2
:1039900000000000D7A8D7A2D2BABEA7C5FAB7A226
:1039A00000000000C8ABB3CCBCBCCAF5D6A7B3D6E8
:1039B0000000000054656C3A313539383933313301
:1039C000353038007777772E7164746563682E6EB2
:1039D00065740000100C01406458000808B5FCF73D
:1039E00020FC482000F096F8FFF732FC4FF40070FE
:1039F000294908604EF67D70FFF770FD4AE027A068
:103A00004EF67D731F220A2100901020FFF725F942
:103A100027A04EF67D734FF478421E2100901020AF
:103A2000FFF71BF924A04EF67D731F223C21009066
:103A30001020FFF712F925A04EF67D734FF478425F
:103A4000502100901020FFF708F923A04EF67D7357
:103A50001F22642100901020FFF7FFF821A04EF6EE
:103A60007D734FF47842782100901020FFF7F5F82D
:103A70001FA04EF67D734FF47842962100901020DF
:103A8000FFF7EBF82149B420FFF730FF2049DC2095
:103A9000FFF72CFFB3E70000100C0140D3B2B1D206
:103AA000C3A4BAD0BCECB2E2CAB5D1E900000000B0
:103AB000D7EDD0C7B3BD0000CEDEC3A4BAD0202F4F
:103AC00020BCECB2E2B5BDC3A4BAD000CAB6B1F016
:103AD000D6D02E2E2E000000CAB6B1F0B3C9B9A6BA
:103AE00000000000BCECB2E2BDE1B9FB3A0000000E
:103AF000D2BBD4AAD3B2B1D2D4DAC9CF2CCEE5BDD1
:103B0000C7D3B2B1D2D4DACFC20000007B9A45004D
:103B1000B21BC7354FF0E021096921F004014FF0D5
:103B2000E0221161C21700EB5272C2F3C702234BAD
:103B30001A701946097801EB4102C2EBC1114FF628
:103B4000FF7202EAC1011E4A1180704701461C4AF9
:103B500012884A434FF0E0235A6100229A61012201
:103B60001A6100BF4FF0E022106900F001021AB1A3
:103B700000F48032002AF5D000224FF0E0231A61D1
:103B80009A61704701460D4A12784A434FF0E0238C
:103B90005A6100229A6101221A6100BF4FF0E022AF
:103BA000106900F001021AB100F48032002AF5D049
:103BB00000224FF0E0231A619A6170473E00002016
:103BC00040000020064C074D06E0E06840F001038D
:103BD00094E8070098471034AC42F6D3FCF7ACFAEF
:103BE000E46400080465000802E008C8121F08C168
:103BF000002AFAD170477047002001E001C1121F6E
:103C0000002AFBD170470000000000000000000007
:103C10000000000000000010101010101010101014
:103C200000001010000000006C6C24240000000054
:103C30000100000000000024242424FE48484848D5
:103C4000FC909090900000103C54929050381412C8
:103C50001292547810000000225C94A8481010249E
:103C60002A5254880000000030484850206E549476
:103C70008C888A74000000003030101000000000B2
:103C80000000000000000004081010202020202068
:103C90002010100804000080402020101010101088
:103CA00010202040800000000000105438103854CC
:103CB00010000000000000000010101010FE101096
:103CC00010100000000000000000000000000000D4
:103CD00000001010200000000000000000FE0000A6
:103CE00000000000000000000000000000000000D4
:103CF000000010100000000004040808101020202C
:103D000040408080000000003844828282828282AB
:103D10008282443800000000107010101010101043
:103D20001010107C0000000038448282040810202B
:103D3000408284FC000000003844820204380402FF
:103D40000282443800000000040C1414242444446B
:103D5000FE04040E00000000FC808080B8C48202D3
:103D600002828478000000003C428280B8C48282D3
:103D700082824438000000007E4282040408080861
:103D80001010101000000000384482824438448231
:103D90008282443800000000384482828282463A9F
:103DA00002824438000000000000101000000000F3
:103DB00010100000000000000000101000000000C3
:103DC000001010200000000000000618608060183D
:103DD000060000000000000000000000FE0000FEE1
:103DE00000000000000000000000C0300C020C3099
:103DF000C000000000000038448282020408101055
:103E000010001010000000003844829AAAAAAAAA42
:103E1000AA9680423C000000101010282828444434
:103E20007C4444EE00000000FC424242427C42429C
:103E3000424242FC000000003C448280808080803E
:103E40008282443800000000F8444242424242422A
:103E5000424244F800000000FC444240447C44409C
:103E6000404244FC00000000FC444240447C44408A
:103E7000404040F000000000344C828080808E84FE
:103E800084844C3400000000EE444444447C4444A8
:103E9000444444EE000000007C101010101010107C
:103EA0001010107C000000003E08080808080808F0
:103EB0000888887000000000EE4448485060504870
:103EC000484444EE00000000E04040404040404094
:103ED000404244FC00000000C6446C6C6C545454D6
:103EE000444444EE00000000CE4464646454544CE6
:103EF0004C4C44E40000000038448282828282827A
:103F00008282443800000000F84442424244784033
:103F1000404040E000000000384482828282828279
:103F200082BA443C02000000F048444444487048CF
:103F3000444444E6000000003C44828040300C02CF
:103F400002824478000000007C549210101010107F
:103F50001010103800000000EE444444444444442F
:103F60004444443800000000EE44444444282828D7
:103F70002810101000000000EE44545454545454BF
:103F80002828282800000000EE4444282810102883
:103F9000284444EE00000000EE4444282828101075
:103FA00010101038000000007E4484080810202003
:103FB000408284FC0000001C101010101010101023
:103FC000101010101C000000EE445454FE545454C1
:103FD0002828282800000070101010101010101051
:103FE0001010101070000030488400000000000025
:103FF00000000000000000000000000000000000C1
:1040000000000000FE000040200000000000000052
:104010000000000000000000000000007884047C24
:1040200084848C7600000000C040404058644242C6
:1040300042426458000000000000000038448080C4
:1040400080804438000000000C040404344C848454
:1040500084844C360000000000000000788484FC5A
:10406000808084780000000018242020F820202080
:104070002020207000000000000000003A44447836
:10408000807C82827C000000C040404058644444F0
:10409000444444EE000000001010000030101010E6
:1040A0001010103800000000101000003010101028
:1040B0001010109060000000C04040405C4850600C
:1040C000504844EE00000000301010101011101085
:1040D000101010390000000000000000ACD29292D5
:1040E000929292D6000000000000000058E4444480
:1040F000444444EE00000000000000003844828286
:10410000828244380000000000000000D86442426F
:1041100042645840E000000000000000364C8484F7
:10412000844C34040E000000000000006C3020209D
:1041300020202070000000000000000078888460CB
:10414000188444780000000000202020F82020205F
:10415000202024180000000000000000C642424257
:104160004242463A0000000000000000EE444428AD
:10417000282810100000000000000000EE44445405
:10418000542828280000000000000000EE442810F9
:10419000102844EE0000000000000000EE44442817
:1041A000281010A0C0000000000000007E4488100D
:1041B000204284FC0000000C101010101060101041
:1041C000101010100C000010101010101010101013
:1041D00010101010100000C02020202020182020D7
:1041E00020202020C00000000000000000728C0091
:1041F0000000000000000000000000001FE00000C0
:104200003FF000003FF000001FE0000180060003C7
:10421000C00F0003C00F0003C00F0003C00F000356
:10422000C00F0003C00F0003C00F0003C00F000346
:104230000003000000000000000000000000000378
:1042400000030003C00F0003C00F0003C00F0003F2
:10425000C00F0003C00F0003C00F0003C00F000316
:10426000C00F0001800600001FE000003FF00000CA
:104270003FF000001FE00000000000000000000010
:104280000080000001800000038000000780000023
:104290000780000007800000078000000780000002
:1042A00007800000078000000780000007800000F2
:1042B000018000000000000000000000000000007D
:1042C00001800000078000000780000007800000D8
:1042D00007800000078000000780000007800000C2
:1042E00007800000078000000380000001800000BC
:1042F0000080000000000000000000001FE000003F
:104300003FF00000FFF00001FFE0000000060000A9
:10431000000F0000000F0000000F0000000F000061
:10432000000F0000000F0000000F0000000F000051
:104330001FE300007FF800007FF800001FE000038B
:1043400000000003C0000003C0000003C000000321
:10435000C0000003C0000003C0000003C000000351
:10436000C0000001800000001FF000003FF80000C6
:104370003FFC00001FFE000000000003FF80000162
:10438000FFC00000FFC000007F8000000018000098
:10439000003C0000003C0000003C0000003C00002D
:1043A000003C0000003C0000003C0000003C00001D
:1043B0007F8C0001FFE00001FFF000007F80000023
:1043C000000C0000003C0000003C0000003C00002D
:1043D000003C0000003C0000003C0000003C0000ED
:1043E000003C0000001800007F800000FFC00001BA
:1043F000FFC00003FF80000000000000000000027A
:10440000000100030003000380070003C00F000346
:10441000C00F0003C00F0003C00F0003C00F000354
:10442000C00F0003C00F0003C00F0003C00F000344
:104430001FE300007FF800007FFC00001FE0000089
:1044400000030000000F0000000F0000000F00003C
:10445000000F0000000F0000000F0000000F000020
:10446000000F0000000F0000000700000003000024
:104470000001000000000000000000001FFC000020
:104480003FF800003FF000001FE000018000000343
:10449000C0000003C0000003C0000003C000000310
:1044A000C0000003C0000003C0000003C000000300
:1044B0001FE000007FF800007FF800001FE0000010
:1044C00000030000000F0000000F0000000F0000BC
:1044D000000F0000000F0000000F0000000F0000A0
:1044E000000F0000000600003FE000007FF0000029
:1044F000FFF00001FFE00000000000001FFC0000D2
:104500003FF800003FF000001FE0000180000003C2
:10451000C0000003C0000003C0000003C00000038F
:10452000C0000003C0000003C0000003C00000037F
:104530001FE000007FF800007FFC00001FE0000388
:1045400000030003C00F0003C00F0003C00F0003EF
:10455000C00F0003C00F0003C00F0003C00F000313
:10456000C00F0001800600001FE000003FF00000C7
:104570003FF000001FE0000000000007FFE0000324
:10458000FFC00001FF880000FF1800000038000095
:10459000007800000078000000780000007800003B
:1045A000007800000078000000780000007800002B
:1045B00000180000000000000000000000000000E3
:1045C000001800000078000000780000007800006B
:1045D00000780000007800000078000000780000FB
:1045E000007800000078000000380000001800008B
:1045F0000008000000000000000000001FE00000B4
:104600003FF000003FF000001FE0000180060003C3
:10461000C00F0003C00F0003C00F0003C00F000352
:10462000C00F0003C00F0003C00F0003C00F000342
:104630001FE300007FF800007FFC00001FE0000384
:1046400000030003C00F0003C00F0003C00F0003EE
:10465000C00F0003C00F0003C00F0003C00F000312
:10466000C00F0001800600001FE000003FF00000C6
:104670003FF000001FE00000000000001FE000000D
:104680003FF000003FF000001FE000018006000343
:10469000C00F0003C00F0003C00F0003C00F0003D2
:1046A000C00F0003C00F0003C00F0003C00F0003C2
:1046B0001FE300007FF800007FFC00001FE0000007
:1046C00000030000000F0000000F0000000F0000BA
:1046D000000F0000000F0000000F0000000F00009E
:1046E000000F0000000600001FE000003FF0000087
:1046F0007FF00000FFE0000000000000000000006C
:1047000000000000000000000000000000000000A9
:104710000000000000000000000000000000000099
:104720000000000000000000000000000000000089
:104730000000000000000000000000000000000079
:1047400000000000000000000000000078000000F1
:104750007800000078000000780000007800000079
:1047600078000000000000000000000000000000D1
:104770000000000000000000000000000000000039
:104780000000000000000000000000000000000029
:104790000000000000000000070000000F80000083
:1047A0000F8000000F8000000700000000000000E4
:1047B00000000000000000000000000000000000F9
:1047C00000000000070000000F8000000F800000C4
:1047D0000F80000007000000000000000000000043
:1047E00000000000000000000000000000000000C9
:1047F00000000000000000000000000000000000B9
:104800000000000000000007C006000FE0060000E6
:10481000000C003018180030181800301830003024
:10482000183000301860003008C00007C0C0000F0A
:10483000E080000000000000000FE0000607C0005C
:10484000063018000C3018000C3018001830180012
:10485000303018003030180060000000C00FE00059
:10486000C007C000000000000000000000000000C1
:104870000000000000000000000000000000000038
:104880000000000000000000000000000000000721
:1048900000E0000887FC00088E03000898018007EC
:1048A00018008000300000003000000070000000A0
:1048B0006000000060000000600000006000000078
:1048C00060000000700000003000000030000000B8
:1048D00038000000180100000C03000007FC000075
:1048E00001F00000000000000000000000000000D7
:1048F00000000000000000000000000000000000B8
:1049000000000000000000000000000000000000A7
:104910000000000000000000000000000000000097
:104920000000000000000000000000000000000087
:10493000000000003FF000007FF000007FE000007A
:10494000FFC00000000000000000000000000000A8
:104950000000000000000000000000000000000057
:104960000000000000000000000000000000000047
:104970000000000000000000B5E702000200020095
:104980007FF0421042107FF0421042107FF0420050
:104990000208020801F800000000D7D37FF00020D1
:1049A0000040008001000200FFF802000200020047
:1049B0000200020002000E0000000000C8AB01006F
:1049C000010002800440082010102FE8C1060100F9
:1049D00001001FF00100010001007FFC0000B6AFE4
:1049E000004000407C40004001FC0044FE44204464
:1049F0002044208448844484FD0445040228041093
:104A0000BCBC10201020102013FEFC201020102011
:104A100015FC18843088D048105010201050518850
:104A20002606CAF501000120011001107FFC038059
:104A30000540054009201110210841040102010030
:104A400001000100D2BA0080404027F81140014027
:104A50008278424816A81AD0235022204220425081
:104A6000028800000000BEA73FE020203FE0202099
:104A70003FE00000FDF885088508FDF885088508F9
:104A8000FDF8850800000000BCEC1040104010A0AC
:104A900010A0FD10120835F638005488504892488E
:104AA00011501110102017FE1000B2E200084F88BC
:104AB00028880AA88AA84AA80AA82AA82AA84228B0
:104AC000450884888888103800000000CAD4405007
:104AD000204820400FF80040E0402740224022407C
:104AE00022202A2833A82E18000800000000CAB58A
:104AF000020001007FFE4002888404800480108050
:104B000008800880FFFE014002200410180860049D
:104B1000D1E90020F82008504850488849044AFA52
:104B20007C00044404241D24E4A8448804102BFEC3
:104B30001000B3CC00001BF0E210221023F0F800AC
:104B4000200033F068806080A3F02080208027F868
:104B500000000000D0F2020001003FF820002FF01A
:104B60002020224021803FF82088209040804080F3
:104B7000838000000000D1D5200010F87E20444042
:104B800028F87E8848A850A864A848A872A884502D
:104B90001888610800000000C9AB100010003FE059
:104BA000404080807FF04210421042107FF0400071
:104BB000400840083FF800000000CCEE20802FF8AD
:104BC000208027F0F41027F0241027F0241027F07D
:104BD0003410CFF80220041000000000B3E40400F9
:104BE0000200FFF80800104020207FF008900880A5
:104BF0000880088010882088C07800000000CEC49B
:104C0000040002000200FFF81040104008800880F5
:104C100005000200050008803060C0180000000098
:104C2000D7D604000200FFF8800880083FC000804B
:104C300001000200FFF80200020002000E00000066
:104C40000000CFD43FE0202020203FE02020202083
:104C50003FE008804890289028A008800880FFF84E
:104C600000000000CABE00003FE00000000000009D
:104C7000FFF80200124012202210420882080200AF
:104C80000E0000000000CDBC7FF84008440847C873
:104C90004848548843084CC8733840884C08430837
:104CA00040887FF800000000C6AC00802080208093
:104CB00020803FF02000200020003FC02040204006
:104CC00020404040804000000000B4A52040384013
:104CD000484091F07D50555055507D5055F054400E
:104CE0007C40545057F88C0800000000C3FE22207E
:104CF000222027F8FA2027F0241027F03410E7F0BC
:104D000020802FF821402220EC1800000000CAE487
:104D100040804140F22044108BE8A000F78824A88E
:104D200027A834A8E7A824A8248825B800000000F4
:104D3000C8EB0800040004000200020005000500A2
:104D4000088008801040104020204010800800009B
:104D50000000C8AB020002000500088010402020BF
:104D6000DFD8020002001FC0020002000200FFF8AC
:104D700000000000B3CC00001BF0E210221023F072
:104D8000F800200033F068806080A3F0208020804D
:104D900027F800000000BCBC208020802080F7F0B5
:104DA0002080208027E03220E22021402080214006
:104DB0002220EC1800000000CAF502000240022088
:104DC0000200FFF807000A800A80124022204210E9
:104DD00082080200020000000000D6A702000200C4
:104DE000FFF8020002007FE010201040088005005C
:104DF0000200050018C0E03800000000B3D6208093
:104E0000208023F0F880208027F828203020E7F841
:104E10002020222021202020E0E000000000D7A850
:104E2000020002007FF004000400FFF808001000F8
:104E30003FE0002000401C800300008000000000D4
:104E4000D7A201004080200017F0008080804080C1
:104E5000008017F010802080208040804FF80000F4
:104E60000000C5FA204024402440F4482450276024
:104E700024403440E4402440244025482648E43877
:104E800000000000B7A202002220221044007FF898
:104E9000040008000FE0142024404280810006C076
:104EA000383800000000B3C900A0009000807FF8EF
:104EB000408040907C90449044A044A0444858A82E
:104EC0004118820800000000B9A601000100F900A5
:104ED00023F0211021102110211021103910C210AF
:104EE00002100410086000000000D2C6000000207C
:104EF00000780CE47904516810307E6019981A3CEF
:104F00002FE448E40838003000600000D1A1000020
:104F10000120012003FC62203420042003FC240033
:104F200021B021202220323E18000FE00000D4F1F1
:104F30000000000010FC1304110C3DF8703E10D06E
:104F400015907CF0503E18101BFE0230002000002F
:104F5000CFEE0000000003FE00607C4012FC110454
:104F60001106113611241F44794400C0009C0186AB
:104F70000000C4BF000000000FE03C18200820041F
:104F80003E04600460047E046004200C20081FF0CE
:104F900001800000CEDE00003FF0020002000200AF
:104FA00002007FFC04800480048008800880108454
:104FB0002084407C8000D3D002000200FFFE040069
:104FC00004000FF0081018102FF0481088100FF090
:104FD0000810081008500820C3A402000100FFFEBA
:104FE0001000100010001FF800001FF010101FF03C
:104FF00010101FF010101FF01010BAD00100028026
:105000000C603018CFE600001FF010101FF00000F9
:105010003FF8244824482448FFFE0000CAB6000098
:10502000200011FC110401040104F104110411FC1D
:105030001104100014901888110402020402B1F047
:1050400000047F044104412441247F2410241024BF
:10505000FF24112411241124210421044A1484085A
:10506000B3C90050004800403FFE2040204020448B
:105070003E4422442228222822122A32444A4086D0
:105080008102B9A6004000400040FE4011FC1044DF
:10509000104410441044108410841E84F104410410
:1050A00002280410D7ED0040FE2029FE2800FE88CB
:1050B000AA88AB54AA22AE00C22083FEFE20822022
:1050C0008220FE208220D0C700001FF010101FF0A9
:1050D00010101FF0010011001FF8210041001FF007
:1050E000010001007FFC0000B3BD00003FFC200078
:1050F00020002FF8200020003FFC2480248824502A
:1051000024204410450886060400D2BB000000009D
:1051100000000000000000000000FFFE0000000092
:10512000000000000000000000000000D4AA000001
:105130003FF8000000000000FFFE0440044004406F
:1051400004400840084210422042403E8000CEE524
:1051500000007FFC02000200020002003FF0041089
:10516000041004100410081008100810FFFE0000BE
:10517000BDC7080008001FE020204040BFF82108FC
:1051800021083FF8210821083FF82108410841285B
:105190008010D3B2000001FEFC20102011FC21245D
:1051A0003D2465FC6524A52425FC25203CA0244045
:1051B00020B0030EB1D2000801FC7F000100010005
:1051C0003FF8210821082108210821082128211061
:1051D000010001000100B5BD0004FF840804102493
:1051E00022244124FFA408A4082408247F2408249E
:1051F00008040F84F8144008C9CF0200020002001E
:1052000002000200020003F8020002000200020095
:10521000020002000200FFFE0000CFC20000FFFEFD
:1052200002000200020002000240022002100208F6
:10523000020802000200020002000200D4DA0200AA
:1052400002000400FFFE080008401040304057FCF8
:10525000904010401040104010401FFE1000D6D06B
:1052600001000100010001003FF821082108210888
:10527000210821083FF82108010001000100010078
:10528000BDE110201020202027FE4420F82011FC32
:1052900020004000FDFC410401041D04E10441FC28
:1052A0000104B9FB00001FF0111011101FF01110C4
:1052B00011101FF011100100FFFE054009203118E8
:1052C000C106010000000000000000000000000016
:1052D00000000000000000000000000000000000CE
:1052E000000000000000B4BF000000000000020148
:1052F00000063FC00C3FE018030010020033366088
:105300003726203E66301C643018642031FEE03FB2
:105310001FC01C0C00000C000704003E07F0000139
:10532000C0000000000000000000000000000000BD
:10533000C9AB00000000000001FE0003E30007030A
:10534000000C03001C3F003BFFC03F30600C3020CE
:105350000C30200C10200C10600FFFC0083F00081C
:1053600000000800600E3FE007FC000000000000A5
:1053700000000000000000000000CCEE0000000073
:10538000000000030000FFE00C07F00C06000CFF1B
:10539000803FF0E01FC0600CFE300CCC3004F830D1
:1053A00004FF2004C0201FFE603EC06001FFF0012A
:1053B000FFF00060600040000000000000000000FE
:1053C00000000000B3E40000000000000020000026
:1053D000300007FFF03FFFE00300000601800C01F2
:1053E000800801C01807E00FFE7007E00002060009
:1053F0000604000404000404000C06700C07E0001E
:105400000000000000000000000000000000B2E208
:1054100000000000000000003039FC301FCC3007D5
:1054200006B00F06F01907B03137B03136F01F273C
:10543000F00167F001E5F001E1F00041F00CF8B097
:105440003CD830008C3000803000000000000000AC
:105450000000000000000000CAD4000000000000AE
:105460000803600C03700C0330003FE0003F80082D
:1054700001003C0180047F80047D800C00800C10C2
:10548000C00C10C00C18400C1C600F7E6006703001
:1054900000003000000000000000000000000000DC
:1054A0000000CEC400000000C00000E0000070005A
:1054B00001FFE01FFFC0180100000300000600000C
:1054C0000E00001C000E180007300001E00000F084
:1054D0000000FC00018F000303C00201E000000097
:1054E000000000000000000000000000D7D600000F
:1054F00000000000002000003F0031FFE03FC0201E
:1055000038003030FE2033C660100200000C00006E
:105510001800001800000C0007FFE03FFFE0000447
:1055200000000C00000C0000000000000000000063
:10553000000000000000CFD400000000000007FFC2
:10554000000F03C00C00401FF86018006008004006
:105550000E01C007FF000000000184000184001953
:1055600087800F8CE0078C2000CC0003FFE01FFF3A
:10557000C00000000000000000000000000000006B
:10558000CABE0000000000000E00001FFFC0007F28
:10559000E0000000000000000000000000003FC02C
:1055A0003FFFE00030000030000030000613000C28
:1055B00013C00C18F01818001818000000000000A4
:1055C00000000000000000000000CDBC0000000052
:1055D000000007FF000F03801CC0C019FC6011C64B
:1055E0006033062033E63036FF30301FF030703045
:1055F00030FC30339F3036002010E060187C400EC5
:1056000001C003FF0000380000000000000000009F
:1056100000000000C6AC00000000000008180018E0
:105620000800180800180800180C201FFFF01FF8C9
:105630000018000010000010F8001FFE001E0300FC
:1056400010030010030010030010030018020000F4
:105650000000000000000000000000000000CFD4A7
:1056600000000000000007FF000F03C00C00401FF7
:10567000F8601800600800400E01C007FF0000003D
:10568000000184000184001987800F8CE0078C20C2
:1056900000CC0003FFE01FFFC0000000000000007E
:1056A0000000000000000000CABE00000000000072
:1056B0000E00001FFFC0007FE0000000000000009F
:1056C0000000000000003FC03FFFE000300000305D
:1056D000000030000613000C13C00C18F01818005E
:1056E000181800000000000000000000000000008A
:1056F0000000B4A50000000000000601800FC1807A
:105700001E6180304FC020CFE0078D303FC930335D
:1057100079303379303FFB3037FF203267E03FE3A9
:10572000803FE3C03263603267F0304FB00000006A
:10573000000000000000000000000000C3FE0000A8
:10574000000000000030C000FFF00C79C00C1F808A
:105750000C7FE03FE0600CC0300CFC3004C0300730
:10576000C0301E60603C3FC0041C00047FE000FFAE
:10577000E00030C000606000000000000000000099
:10578000000000000000CAE40000000000000C035C
:10579000800C0FC0081C703F70001F9FC0101FC0FE
:1057A000100000367C3017E6301FE3B0067FB002F1
:1057B00077F007E3F03F7FF01336F003263003263F
:1057C00030000000000000000000000000000000A9
:1057D000C8EB00000000000006000003800001C0CC
:1057E0000000E00000700000780000CC0000C6005F
:1057F0000183000301800700C00600E00C00701860
:105800000030180000300000000000000000000020
:105810000000000000000000000000000000000088
:105820000000000000000000000000000000000078
:105830000000000000000000000000000000000068
:105840000000000000000000000000000000000058
:105850000000000000000000000000000000000048
:1058600000000000FFFFFFFFFFFFFFFFFFFFFFFF44
:10587000FFFFFFFFFFFFFFFFFFFFFFFFFFFFFFFF38
:10588000FFFFBEF7FFFFDEFF38C6928C8E6B6E6B9C
:10589000107C96AD3CE7FFFFFFFFFFFFFFFFFFFF20
:1058A000FFFFFFFFFFFFFFFFFFFFFFFFFFFFFFFF08
:1058B000FFFFFFFFFFFFFFFFFFFFFFFFFFFFFFFFF8
:1058C000FFFFFFFFFFFFFFFFFFFFFFFFFFFFFFFFE8
:1058D000FFFF5DEF159D4F636C420A328829461920
:1058E00025194521E8318E6B38C6FFFFFFFFFFFF0A
:1058F000FFFFFFFFFFFFFFFFFFFFFFFFFFFFFFFFB8
:10590000FFFFFFFFFFFFFFFFFFFFFFFFFFFFFFFFA7
:10591000FFFFFFFFFFFFFFFFFFFFFFFFFFFFFFFF97
:1059200036A51053104B51530F4B6C3AE931672198
:105930002519E410A30862008308CB529AD6FFFF12
:10594000FFFFFFFFFFFFFFFFFFFFFFFFFFFFFFFF67
:10595000FFFFFFFFFFFFFFFFFFFFFFFFFFFFFFFF57
:10596000FFFFFFFFFFFFFFFFFFFFFFFF3CE770634D
:10597000B363B87CF56311434D32EA2988212619B7
:105980000519051904110411E4108300A308728C91
:10599000FFFFFFFFFFFFFFFFFFFFFFFFFFFFFFFF17
:1059A000FFFFFFFFFFFFFFFFFFFFFFFFFFFFFFFF07
:1059B000FFFFFFFFFFFFFFFFFFFFDBDE4B3AF04281
:1059C000356C544BB1322E2AEB21A92167190519E8
:1059D000041104110411041104110519E41042000A
:1059E000AF73FFFFFFFFFFFFFFFFFFFFFFFFFFFFA3
:1059F000FFFFFFFFFFFFFFFFFFFFFFFFFFFFFFFFB7
:105A0000FFFFFFFFFFFFFFFF5DEF09324C32104B3E
:105A10008F324F2A2E2ACC19891989214719051945
:105A200004110411C410C410041104110411E41071
:105A300042003184FFFFFFFFFFFFFFFFFFFFFFFF7B
:105A4000FFFFFFFFFFFFFFFFFFFFFFFFFFFFFFFF66
:105A5000FFFFFFFFFFFFFFFFEC5247194C320B2AFD
:105A6000EC21EC210C22915BEE4A06112619041957
:105A7000E410E410A7296621A308051904110411F4
:105A8000E4108200F7BDFFFFFFFFFFFFFFFFFFFFF6
:105A9000FFFFFFFFFFFFFFFFFFFFFFFFFFFFFFFF16
:105AA000FFFFFFFFFFFF35A583088821882189219B
:105AB000AA218A216B42718CFFFF728C830804112A
:105AC000C4082942FBDE5DEFEC5A8308041104117F
:105AD00004118308E831DFFFFFFFFFFFFFFFFFFF37
